:100000000A128A119B2CFF1B0D2883137F1883175C
:100010000008840A0319FF0A08007F087F398A0054
:0A0020000408840A0319FF0A820095
:1009360083010A128A112B2E83160313941314179C
:100946008312031314129411141194141410941393
:1009560094160800831203138710FF300A128A11B7
:10096600D3240A128A11F3007308F40083120313C6
:1009760087147408BE2C08001730F8007808F300B6
:100986007A30F9007908F400F5010314F50D00300A
:100996000A128A1132250A128A117A08D22C080004
:1009A600F200831203131308F0007008F1008C1193
:1009B60072089300DE2C83160313141CE32CE42C1C
:1009C600DE2CE52C831203131308E92C080083128E
:1009D60003130710F3017A30F9007908F400F501E2
:1009E6000314F50D00300A128A1132250A128A11F3
:1009F600FE30F9007908FA05F3017A30F400003088
:100A0600F500F6010314F60D20300A128A115F254F
:100A16000A128A110800831203130710F3017A30B1
:100A2600F9007908F400F5010314F50D00300A12F7
:100A36008A1132250A128A117A14F3017A30F400E7
:100A46000030F500F6010314F60D20300A128A1163
:100A56005F250A128A118312031307140800F70090
:100A660073081F39F6007608F707831203138710F9
:100A760077080A128A11D3240A128A11532DFF30DD
:100A86000A128A11D3240A128A11F6007408840005
:100A96007608831380000130F6007608F407532D9C
:100AA6000130F5027508FF3A031D5A2D5B2D422DC4
:100AB6008312031387140800F80073081F39F70020
:100AC6007708F80783120313871078080A128A1129
:100AD600D3240A128A11862D750883120313FF0088
:100AE600740884000A128A1103200A128A110A1253
:100AF6008A11D3240A128A110130F4070318F50A61
:100B06000030F507862D0130F6027608FF3A031D00
:100B16008D2D8E2D6F2D83120313871408008312DB
:100B26000313A0000A128A11BF240A128A11FC00BC
:100B36007C0883120313A1002118A22DA32DB82D22
:100B4600F3012008FC007C08F4007B08FD007D080A
:100B5600F50061300A128A1132250A128A118312AF
:100B66000313A3010314A30DBA2DA301BA2D0A1270
:100B76008A11AD240A128A11FC007C088312031321
:100B8600A2000730FC007C08F3002230F40000309D
:100B9600F500F6010314F60D20300A128A115F25BE
:100BA6000A128A11831203132308D92D0800FB00A9
:100BB600831203130714F3017B08F4000030F500D9
:100BC6007908FA007A08F600A0300A128A115F2521
:100BD6000A128A11831203130710F12D0719F42D37
:100BE600F52DF12DF62D0A128A11AD240A128A115D
:100BF600FA007A08FC000730FA007A08F3007C3025
:100C0600F4000030F500F6010314F60D20300A1248
:100C16008A115F250A128A11F3010030F400803030
:100C2600F500F601E1300A128A115F250A128A11CF
:100C3600FC1E1E2E1F2E272E7C1A222E232E272E1A
:100C460001302A2E2A2E2A2E00302A2E2A2E08007D
:100C56000630831603139F003F308600D43087008A
:100C66008312031385018601870188018901061312
:100C76008613071087140A128A119F240A128A11F2
:100C86000A128A11FA260A128A11492E83120313AE
:100C960007194E2E4F2E732EFB010314FB0D293020
:100CA6000A128A1192250A128A1183120313A500C9
:100CB6002508A8002808031D612E732E2908013A6D
:100CC600031D662E672E692E0617732E2908023A13
:100CD600031D6E2E6F2E732E0613732E732E732E18
:100CE6000618762E772EB32E0A128A11EA240A12D5
:100CF6008A1183120313A9010314A90DF901031420
:100D0600F90D29300A128A11DA250A128A1183127C
:100D16000313A5002508A8000A128A110E250A1237
:100D26008A1183120313A808031D9A2E9B2EAE2E3A
:100D360086170830A7009D30A6000B30A500A50B2E
:100D4600A22EA60BA22EA70BA22EA92E8312031348
:100D56008613AE2EAE2E061CB12EB22EAE2EB32E9E
:100D66008618B62EB72E492E0A128A11EA240A12BE
:100D76008A11023083120313A5002508A900F90180
:100D86000314F90D29300A128A11DA250A128A117A
:100D960083120313A5002508A8000A128A110E253E
:100DA6000A128A1183120313A808031DDB2EDC2EF8
:100DB600EF2E86170830A7009D30A6000B30A50041
:100DC600A50BE32EA60BE32EA70BE32EEA2E83122A
:100DD60003138613EF2EEF2E861CF22EF32EEF2E24
:100DE600492E492E492E492E0A128A11002803300F
:100DF600FB008A30FA005630F900F90B002FFA0B87
:100E0600002FFB0B002F072FF3010030F40080307A
:100E1600F500F601E1300A128A115F250A128A11DD
:100E2600F3010030F4008030F500F601E2300A12DA
:100E36008A115F250A128A11AA30F90079088312ED
:100E46000313A000BB30F9007908A100CC30F900EB
:100E56007908A200DD30F9007908A300EE30F90028
:100E66007908A4001030F9007908F3002030F40066
:100E76000030F5000530FA007A08F60020300A1234
:100E86008A115F250A128A110A30F9007908F300DF
:100E96002030F4000030F5000530FA007A08F6003C
:100EA60020300A128A115F250A128A11831203134F
:100EB600A0010314A00DF3010314F30D2030F40078
:100EC6000030F500F6010314F60D20300A128A11DF
:100ED6005F250A128A1183120313A0010314A00DC1
:100EE6000230F9007908F3002030F4000030F500F4
:100EF600F6010314F60D20300A128A115F250A1234
:100F06008A1183120313A0010314A00D1130F900F6
:100F16007908F3002030F4000030F500F6010314E0
:100F2600F60D20300A128A115F250A128A111F3027
:100F3600F900790883120313A0000430F900790838
:100F4600F3002030F4000030F500F6010314F60D2E
:100F560020300A128A115F250A128A113230F900EE
:100F6600790883120313A0000530F9007908F3000D
:100F76002030F4000030F500F6010314F60D2030A1
:100F86000A128A115F250A128A110630F9007908B9
:100F960083120313A0000630F9007908F30020300D
:100FA600F4000030F500F6010314F60D20300A12A5
:100FB6008A115F250A128A110F30F9007908831207
:100FC6000313A000F3012030F4000030F500F60111
:100FD6000314F60D20300A128A115F250A128A11AF
:100FE6008312031307140D30FA00FB30F900F90BD6
:0A0FF600FA2FFA0BFA2FFF2F080064
:02400E0032FF7F
:00000001FF
